{
  "_format": "hh-sol-artifact-1",
  "contractName": "CareerPlanningSimple",
  "sourceName": "contracts/CareerPlanningSimple.sol",
  "abi": [
    {
      "anonymous": false,
      "inputs": [
        {
          "indexed": true,
          "internalType": "address",
          "name": "user",
          "type": "address"
        },
        {
          "indexed": true,
          "internalType": "uint256",
          "name": "assessmentId",
          "type": "uint256"
        },
        {
          "indexed": false,
          "internalType": "uint256",
          "name": "timestamp",
          "type": "uint256"
        },
        {
          "indexed": false,
          "internalType": "bytes32",
          "name": "selectedPaper",
          "type": "bytes32"
        }
      ],
      "name": "AssessmentSubmitted",
      "type": "event"
    },
    {
      "inputs": [],
      "name": "assessmentCounter",
      "outputs": [
        {
          "internalType": "uint256",
          "name": "",
          "type": "uint256"
        }
      ],
      "stateMutability": "view",
      "type": "function"
    },
    {
      "inputs": [
        {
          "internalType": "uint256",
          "name": "",
          "type": "uint256"
        }
      ],
      "name": "assessments",
      "outputs": [
        {
          "internalType": "address",
          "name": "user",
          "type": "address"
        },
        {
          "internalType": "bytes32",
          "name": "selectedPaper",
          "type": "bytes32"
        },
        {
          "internalType": "bytes32",
          "name": "careerGoal",
          "type": "bytes32"
        },
        {
          "internalType": "bytes32",
          "name": "skillLevel",
          "type": "bytes32"
        },
        {
          "internalType": "bytes32",
          "name": "educationPriority",
          "type": "bytes32"
        },
        {
          "internalType": "uint256",
          "name": "timestamp",
          "type": "uint256"
        },
        {
          "internalType": "uint256",
          "name": "assessmentId",
          "type": "uint256"
        }
      ],
      "stateMutability": "view",
      "type": "function"
    },
    {
      "inputs": [
        {
          "internalType": "uint256",
          "name": "_id",
          "type": "uint256"
        }
      ],
      "name": "getAssessment",
      "outputs": [
        {
          "internalType": "address",
          "name": "user",
          "type": "address"
        },
        {
          "internalType": "bytes32",
          "name": "selectedPaper",
          "type": "bytes32"
        },
        {
          "internalType": "uint256",
          "name": "timestamp",
          "type": "uint256"
        },
        {
          "internalType": "uint256",
          "name": "assessmentId",
          "type": "uint256"
        }
      ],
      "stateMutability": "view",
      "type": "function"
    },
    {
      "inputs": [],
      "name": "getAssessmentCount",
      "outputs": [
        {
          "internalType": "uint256",
          "name": "",
          "type": "uint256"
        }
      ],
      "stateMutability": "view",
      "type": "function"
    },
    {
      "inputs": [],
      "name": "getContractBalance",
      "outputs": [
        {
          "internalType": "uint256",
          "name": "",
          "type": "uint256"
        }
      ],
      "stateMutability": "view",
      "type": "function"
    },
    {
      "inputs": [
        {
          "internalType": "address",
          "name": "_user",
          "type": "address"
        }
      ],
      "name": "getUserAssessmentCount",
      "outputs": [
        {
          "internalType": "uint256",
          "name": "",
          "type": "uint256"
        }
      ],
      "stateMutability": "view",
      "type": "function"
    },
    {
      "inputs": [
        {
          "internalType": "address",
          "name": "_user",
          "type": "address"
        }
      ],
      "name": "getUserAssessments",
      "outputs": [
        {
          "internalType": "uint256[]",
          "name": "",
          "type": "uint256[]"
        }
      ],
      "stateMutability": "view",
      "type": "function"
    },
    {
      "inputs": [
        {
          "internalType": "bytes32",
          "name": "paperHash",
          "type": "bytes32"
        },
        {
          "internalType": "bytes32",
          "name": "encryptedCareerGoal",
          "type": "bytes32"
        },
        {
          "internalType": "bytes32",
          "name": "encryptedSkillLevel",
          "type": "bytes32"
        },
        {
          "internalType": "bytes32",
          "name": "encryptedEducationPriority",
          "type": "bytes32"
        }
      ],
      "name": "submitCareerAssessment",
      "outputs": [],
      "stateMutability": "payable",
      "type": "function"
    },
    {
      "inputs": [
        {
          "internalType": "address",
          "name": "",
          "type": "address"
        },
        {
          "internalType": "uint256",
          "name": "",
          "type": "uint256"
        }
      ],
      "name": "userAssessments",
      "outputs": [
        {
          "internalType": "uint256",
          "name": "",
          "type": "uint256"
        }
      ],
      "stateMutability": "view",
      "type": "function"
    },
    {
      "inputs": [],
      "name": "withdraw",
      "outputs": [],
      "stateMutability": "nonpayable",
      "type": "function"
    },
    {
      "stateMutability": "payable",
      "type": "receive"
    }
  ],
  "bytecode": "0x608060405234801561001057600080fd5b506106c8806100206000396000f3fe6080604052600436106100955760003560e01c8063773531dd11610059578063773531dd146101d057806398dda73214610206578063a37331b41461021b578063b8e5178714610231578063f8918292146102e857600080fd5b8063288a4ca8146100a1578063375a1e54146100d75780633ccfd60b146101055780634eb6a3b21461011c5780636f9fb98a146101bd57600080fd5b3661009c57005b600080fd5b3480156100ad57600080fd5b506100c16100bc366004610590565b6102fb565b6040516100ce91906105b2565b60405180910390f35b3480156100e357600080fd5b506100f76100f23660046105f6565b610367565b6040519081526020016100ce565b34801561011157600080fd5b5061011a610398565b005b34801561012857600080fd5b5061017e610137366004610620565b60006020819052908152604090208054600182015460028301546003840154600485015460058601546006909601546001600160a01b039095169593949293919290919087565b604080516001600160a01b0390981688526020880196909652948601939093526060850191909152608084015260a083015260c082015260e0016100ce565b3480156101c957600080fd5b50476100f7565b3480156101dc57600080fd5b506100f76101eb366004610590565b6001600160a01b031660009081526001602052604090205490565b34801561021257600080fd5b506002546100f7565b34801561022757600080fd5b506100f760025481565b34801561023d57600080fd5b506102be61024c366004610620565b60008181526020818152604091829020825160e08101845281546001600160a01b031680825260018301549382018490526002830154948201949094526003820154606082015260048201546080820152600582015460a0820181905260069092015460c09091018190529193509193565b604080516001600160a01b03909516855260208501939093529183015260608201526080016100ce565b61011a6102f6366004610639565b61041f565b6001600160a01b03811660009081526001602090815260409182902080548351818402810184019094528084526060939283018282801561035b57602002820191906000526020600020905b815481526020019060010190808311610347575b50505050509050919050565b6001602052816000526040600020818154811061038357600080fd5b90600052602060002001600091509150505481565b737401bf2064459f60490b1f71d9afb039c900ab9933146103f05760405162461bcd60e51b815260206004820152600d60248201526c27b7363c903232b83637bcb2b960991b60448201526064015b60405180910390fd5b60405133904780156108fc02916000818181858888f1935050505015801561041c573d6000803e3d6000fd5b50565b66038d7ea4c6800034101561046d5760405162461bcd60e51b8152602060048201526014602482015273135a5b9a5b5d5b48199959481c995c5d5a5c995960621b60448201526064016103e7565b6002805490600061047d8361066b565b90915550506040805160e08101825233808252602080830188815283850188815260608501888152608086018881524260a088018181526002805460c08b018181526000918252818a528c82209b518c546001600160a01b0319166001600160a01b03909116178c5597516001808d019190915596518b830155945160038b0155925160048a015551600589015593516006909701969096558481528184528681208654815493840182559082529084902090910155925484519384529083018890529290917ff4dca621cd8f2beb83fe2f333969fc7b0a70d65f9d6335819e8bf5293eb7c7ee910160405180910390a350505050565b80356001600160a01b038116811461058b57600080fd5b919050565b6000602082840312156105a257600080fd5b6105ab82610574565b9392505050565b6020808252825182820181905260009190848201906040850190845b818110156105ea578351835292840192918401916001016105ce565b50909695505050505050565b6000806040838503121561060957600080fd5b61061283610574565b946020939093013593505050565b60006020828403121561063257600080fd5b5035919050565b6000806000806080858703121561064f57600080fd5b5050823594602084013594506040840135936060013592509050565b60006001820161068b57634e487b7160e01b600052601160045260246000fd5b506001019056fea2646970667358221220f3d7a2478a21d23d01966f7b0448925f5fecbb427bd26a784126edc7e330703564736f6c63430008180033",
  "linkReferences": {},
  "deployedLinkReferences": {}
}