{
  "_format": "hh-sol-artifact-1",
  "contractName": "CareerPlanningFHE",
  "sourceName": "contracts/CareerPlanningFHE.sol",
  "abi": [
    {
      "inputs": [],
      "stateMutability": "nonpayable",
      "type": "constructor"
    },
    {
      "inputs": [
        {
          "internalType": "address",
          "name": "owner",
          "type": "address"
        }
      ],
      "name": "OwnableInvalidOwner",
      "type": "error"
    },
    {
      "inputs": [
        {
          "internalType": "address",
          "name": "account",
          "type": "address"
        }
      ],
      "name": "OwnableUnauthorizedAccount",
      "type": "error"
    },
    {
      "anonymous": false,
      "inputs": [
        {
          "indexed": true,
          "internalType": "address",
          "name": "user",
          "type": "address"
        },
        {
          "indexed": true,
          "internalType": "uint256",
          "name": "assessmentId",
          "type": "uint256"
        },
        {
          "indexed": false,
          "internalType": "uint256",
          "name": "timestamp",
          "type": "uint256"
        }
      ],
      "name": "AssessmentSubmitted",
      "type": "event"
    },
    {
      "anonymous": false,
      "inputs": [
        {
          "indexed": true,
          "internalType": "address",
          "name": "previousOwner",
          "type": "address"
        },
        {
          "indexed": true,
          "internalType": "address",
          "name": "newOwner",
          "type": "address"
        }
      ],
      "name": "OwnershipTransferred",
      "type": "event"
    },
    {
      "anonymous": false,
      "inputs": [
        {
          "indexed": true,
          "internalType": "address",
          "name": "user",
          "type": "address"
        },
        {
          "indexed": true,
          "internalType": "uint256",
          "name": "assessmentId",
          "type": "uint256"
        }
      ],
      "name": "ResultRequested",
      "type": "event"
    },
    {
      "inputs": [],
      "name": "assessmentCounter",
      "outputs": [
        {
          "internalType": "uint256",
          "name": "",
          "type": "uint256"
        }
      ],
      "stateMutability": "view",
      "type": "function"
    },
    {
      "inputs": [
        {
          "internalType": "uint256",
          "name": "",
          "type": "uint256"
        }
      ],
      "name": "assessments",
      "outputs": [
        {
          "internalType": "address",
          "name": "user",
          "type": "address"
        },
        {
          "internalType": "ebool",
          "name": "careerGoal",
          "type": "bytes32"
        },
        {
          "internalType": "ebool",
          "name": "skillLevel",
          "type": "bytes32"
        },
        {
          "internalType": "ebool",
          "name": "educationPriority",
          "type": "bytes32"
        },
        {
          "internalType": "uint256",
          "name": "timestamp",
          "type": "uint256"
        },
        {
          "internalType": "bool",
          "name": "resultRequested",
          "type": "bool"
        },
        {
          "internalType": "euint8",
          "name": "guidanceScore",
          "type": "bytes32"
        }
      ],
      "stateMutability": "view",
      "type": "function"
    },
    {
      "inputs": [],
      "name": "getAssessmentCount",
      "outputs": [
        {
          "internalType": "uint256",
          "name": "",
          "type": "uint256"
        }
      ],
      "stateMutability": "view",
      "type": "function"
    },
    {
      "inputs": [
        {
          "internalType": "uint256",
          "name": "_assessmentId",
          "type": "uint256"
        }
      ],
      "name": "getAssessmentInfo",
      "outputs": [
        {
          "internalType": "address",
          "name": "",
          "type": "address"
        },
        {
          "internalType": "uint256",
          "name": "",
          "type": "uint256"
        },
        {
          "internalType": "bool",
          "name": "",
          "type": "bool"
        }
      ],
      "stateMutability": "view",
      "type": "function"
    },
    {
      "inputs": [
        {
          "internalType": "uint256",
          "name": "_assessmentId",
          "type": "uint256"
        }
      ],
      "name": "getAssessmentTimestamp",
      "outputs": [
        {
          "internalType": "uint256",
          "name": "",
          "type": "uint256"
        }
      ],
      "stateMutability": "view",
      "type": "function"
    },
    {
      "inputs": [],
      "name": "getContractBalance",
      "outputs": [
        {
          "internalType": "uint256",
          "name": "",
          "type": "uint256"
        }
      ],
      "stateMutability": "view",
      "type": "function"
    },
    {
      "inputs": [
        {
          "internalType": "uint256",
          "name": "_assessmentId",
          "type": "uint256"
        }
      ],
      "name": "getDecryptedCareerGuidance",
      "outputs": [
        {
          "internalType": "uint8",
          "name": "",
          "type": "uint8"
        }
      ],
      "stateMutability": "view",
      "type": "function"
    },
    {
      "inputs": [
        {
          "internalType": "uint256",
          "name": "_assessmentId",
          "type": "uint256"
        }
      ],
      "name": "getEncryptedCareerGuidance",
      "outputs": [
        {
          "internalType": "euint8",
          "name": "",
          "type": "bytes32"
        }
      ],
      "stateMutability": "view",
      "type": "function"
    },
    {
      "inputs": [
        {
          "internalType": "address",
          "name": "_user",
          "type": "address"
        }
      ],
      "name": "getUserAssessmentCount",
      "outputs": [
        {
          "internalType": "uint256",
          "name": "",
          "type": "uint256"
        }
      ],
      "stateMutability": "view",
      "type": "function"
    },
    {
      "inputs": [
        {
          "internalType": "address",
          "name": "_user",
          "type": "address"
        }
      ],
      "name": "getUserAssessments",
      "outputs": [
        {
          "internalType": "uint256[]",
          "name": "",
          "type": "uint256[]"
        }
      ],
      "stateMutability": "view",
      "type": "function"
    },
    {
      "inputs": [
        {
          "internalType": "uint256",
          "name": "_assessmentId",
          "type": "uint256"
        }
      ],
      "name": "isResultRequested",
      "outputs": [
        {
          "internalType": "bool",
          "name": "",
          "type": "bool"
        }
      ],
      "stateMutability": "view",
      "type": "function"
    },
    {
      "inputs": [],
      "name": "owner",
      "outputs": [
        {
          "internalType": "address",
          "name": "",
          "type": "address"
        }
      ],
      "stateMutability": "view",
      "type": "function"
    },
    {
      "inputs": [],
      "name": "renounceOwnership",
      "outputs": [],
      "stateMutability": "nonpayable",
      "type": "function"
    },
    {
      "inputs": [
        {
          "internalType": "uint256",
          "name": "_assessmentId",
          "type": "uint256"
        }
      ],
      "name": "requestAssessmentResult",
      "outputs": [],
      "stateMutability": "nonpayable",
      "type": "function"
    },
    {
      "inputs": [
        {
          "internalType": "ebool",
          "name": "encryptedCareerGoal",
          "type": "bytes32"
        },
        {
          "internalType": "ebool",
          "name": "encryptedSkillLevel",
          "type": "bytes32"
        },
        {
          "internalType": "ebool",
          "name": "encryptedEducationPriority",
          "type": "bytes32"
        }
      ],
      "name": "submitCareerAssessment",
      "outputs": [],
      "stateMutability": "payable",
      "type": "function"
    },
    {
      "inputs": [
        {
          "internalType": "address",
          "name": "newOwner",
          "type": "address"
        }
      ],
      "name": "transferOwnership",
      "outputs": [],
      "stateMutability": "nonpayable",
      "type": "function"
    },
    {
      "inputs": [
        {
          "internalType": "address",
          "name": "",
          "type": "address"
        },
        {
          "internalType": "uint256",
          "name": "",
          "type": "uint256"
        }
      ],
      "name": "userAssessments",
      "outputs": [
        {
          "internalType": "uint256",
          "name": "",
          "type": "uint256"
        }
      ],
      "stateMutability": "view",
      "type": "function"
    },
    {
      "inputs": [],
      "name": "withdraw",
      "outputs": [],
      "stateMutability": "nonpayable",
      "type": "function"
    },
    {
      "stateMutability": "payable",
      "type": "receive"
    }
  ],
  "bytecode": "0x608060405234801561001057600080fd5b50338061003757604051631e4fbdf760e01b81526000600482015260240160405180910390fd5b61004081610046565b50610096565b600080546001600160a01b038381166001600160a01b0319831681178455604051919092169283917f8be0079c531659141344cd1fd0a4f28419497f9722a3daafe3b4186f6b6457e09190a35050565b610e6a806100a56000396000f3fe60806040526004361061010d5760003560e01c806398dda73211610095578063b4aa881011610064578063b4aa8810146103b2578063e12a7575146103d2578063f2fde38b146103f2578063f757827b14610412578063fd4c841e1461042557600080fd5b806398dda7321461033557806399dd63321461034a578063a37331b41461037c578063acebde021461039257600080fd5b80636f9fb98a116100dc5780636f9fb98a1461023e578063715018a614610251578063773531dd14610266578063868a84af1461029c5780638da5cb5b1461030d57600080fd5b8063288a4ca814610119578063375a1e541461014f5780633ccfd60b1461017d5780634eb6a3b21461019457600080fd5b3661011457005b600080fd5b34801561012557600080fd5b50610139610134366004610ccc565b610468565b6040516101469190610ce7565b60405180910390f35b34801561015b57600080fd5b5061016f61016a366004610d2b565b6104d4565b604051908152602001610146565b34801561018957600080fd5b50610192610505565b005b3480156101a057600080fd5b506101fd6101af366004610d55565b600160208190526000918252604090912080549181015460028201546003830154600484015460058501546006909501546001600160a01b0390961695939492939192909160ff9091169087565b604080516001600160a01b03909816885260208801969096529486019390935260608501919091526080840152151560a083015260c082015260e001610146565b34801561024a57600080fd5b504761016f565b34801561025d57600080fd5b5061019261054a565b34801561027257600080fd5b5061016f610281366004610ccc565b6001600160a01b031660009081526002602052604090205490565b3480156102a857600080fd5b506102e66102b7366004610d55565b6000908152600160205260409020805460048201546005909201546001600160a01b039091169260ff90911690565b604080516001600160a01b0390941684526020840192909252151590820152606001610146565b34801561031957600080fd5b506000546040516001600160a01b039091168152602001610146565b34801561034157600080fd5b5060035461016f565b34801561035657600080fd5b5061036a610365366004610d55565b61055e565b60405160ff9091168152602001610146565b34801561038857600080fd5b5061016f60035481565b34801561039e57600080fd5b506101926103ad366004610d55565b6105fb565b3480156103be57600080fd5b5061016f6103cd366004610d55565b6106ed565b3480156103de57600080fd5b5061016f6103ed366004610d55565b61072e565b3480156103fe57600080fd5b5061019261040d366004610ccc565b61076f565b610192610420366004610d6e565b6107aa565b34801561043157600080fd5b50610458610440366004610d55565b60009081526001602052604090206005015460ff1690565b6040519015158152602001610146565b6001600160a01b0381166000908152600260209081526040918290208054835181840281018401909452808452606093928301828280156104c857602002820191906000526020600020905b8154815260200190600101908083116104b4575b50505050509050919050565b600260205281600052604060002081815481106104f057600080fd5b90600052602060002001600091509150505481565b61050d610919565b600080546040516001600160a01b03909116914780156108fc02929091818181858888f19350505050158015610547573d6000803e3d6000fd5b50565b610552610919565b61055c6000610946565b565b600081815260016020526040812080546001600160a01b0316331461059e5760405162461bcd60e51b815260040161059590610d9a565b60405180910390fd5b600581015460ff166105f25760405162461bcd60e51b815260206004820152601860248201527f526573756c74206e6f74207265717565737465642079657400000000000000006044820152606401610595565b50605592915050565b600081815260016020526040902080546001600160a01b031633146106585760405162461bcd60e51b8152602060048201526013602482015272139bdd081e5bdd5c88185cdcd95cdcdb595b9d606a1b6044820152606401610595565b600581015460ff16156106ad5760405162461bcd60e51b815260206004820152601860248201527f526573756c7420616c72656164792072657175657374656400000000000000006044820152606401610595565b60058101805460ff19166001179055604051829033907f557860035f4876868df010cfe894a9a1b9abca118c1d5c991efb9b7f625c6b9e90600090a35050565b600081815260016020526040812080546001600160a01b031633146107245760405162461bcd60e51b815260040161059590610d9a565b6004015492915050565b600081815260016020526040812080546001600160a01b031633146107655760405162461bcd60e51b815260040161059590610d9a565b6006015492915050565b610777610919565b6001600160a01b0381166107a157604051631e4fbdf760e01b815260006004820152602401610595565b61054781610946565b66038d7ea4c680003410156107f85760405162461bcd60e51b8152602060048201526014602482015273135a5b9a5b5d5b48199959481c995c5d5a5c995960621b6044820152606401610595565b6003805490600061080883610dc2565b9190505550600061081a848484610996565b6040805160e081018252338082526020808301898152838501898152606085018981524260808701818152600060a0890181815260c08a018c81526003805484526001808b528d85209c518d546001600160a01b0319166001600160a01b03909116178d5598518c8a015596516002808d019190915595518b880155925160048b01555160058a01805460ff1916911515919091179055905160069098019790975585875290845286862082548154948501825590875295849020909201949094559254935192835293945091927f13d6145eb674af10d0330752a2ce13fed9f845c13b43e4c313de364924ff7ec8910160405180910390a350505050565b6000546001600160a01b0316331461055c5760405163118cdaa760e01b8152336004820152602401610595565b600080546001600160a01b038381166001600160a01b0319831681178455604051919092169283917f8be0079c531659141344cd1fd0a4f28419497f9722a3daafe3b4186f6b6457e09190a35050565b6000806109a36032610a18565b905060006109c4866109b5600f610a18565b6109bf6000610a18565b610a2e565b90506109d08282610a43565b915060006109e2866109b56014610a18565b90506109ee8382610a43565b92506000610a00866109b5600f610a18565b9050610a0c8482610a43565b98975050505050505050565b6000610a288260ff166002610a7c565b92915050565b6000610a3b848484610b35565b949350505050565b600082610a5757610a546000610a18565b92505b81610a6957610a666000610a18565b91505b610a7583836000610be2565b9392505050565b7f9e7b61f58c47dc699ac88507c4f5bb9f121c03808c5676a8078fe583e464970154604051639cd07acb60e01b81526000917f9e7b61f58c47dc699ac88507c4f5bb9f121c03808c5676a8078fe583e4649700916001600160a01b0390911690639cd07acb90610af29087908790600401610de9565b6020604051808303816000875af1158015610b11573d6000803e3d6000fd5b505050506040513d601f19601f82011682018060405250810190610a3b9190610e1b565b6000807f9e7b61f58c47dc699ac88507c4f5bb9f121c03808c5676a8078fe583e46497006001810154604051637702dcff60e01b81526004810188905260248101879052604481018690529192506001600160a01b031690637702dcff906064016020604051808303816000875af1158015610bb5573d6000803e3d6000fd5b505050506040513d601f19601f82011682018060405250810190610bd99190610e1b565b95945050505050565b6000808215610bf65750600160f81b610bfa565b5060005b60007f9e7b61f58c47dc699ac88507c4f5bb9f121c03808c5676a8078fe583e4649700600181015460405163022f65e760e31b815260048101899052602481018890526001600160f81b0319851660448201529192506001600160a01b03169063117b2f38906064016020604051808303816000875af1158015610c82573d6000803e3d6000fd5b505050506040513d601f19601f82011682018060405250810190610ca69190610e1b565b9695505050505050565b80356001600160a01b0381168114610cc757600080fd5b919050565b600060208284031215610cde57600080fd5b610a7582610cb0565b6020808252825182820181905260009190848201906040850190845b81811015610d1f57835183529284019291840191600101610d03565b50909695505050505050565b60008060408385031215610d3e57600080fd5b610d4783610cb0565b946020939093013593505050565b600060208284031215610d6757600080fd5b5035919050565b600080600060608486031215610d8357600080fd5b505081359360208301359350604090920135919050565b6020808252600e908201526d139bdd08185d5d1a1bdc9a5e995960921b604082015260600190565b600060018201610de257634e487b7160e01b600052601160045260246000fd5b5060010190565b8281526040810160548310610e0e57634e487b7160e01b600052602160045260246000fd5b8260208301529392505050565b600060208284031215610e2d57600080fd5b505191905056fea2646970667358221220b6ac28c55c136c49759ec437046045da4e07591c4d337d4bfc49f9869a80543964736f6c63430008180033",
  "linkReferences": {},
  "deployedLinkReferences": {}
}