{
  "_format": "hh-sol-artifact-1",
  "contractName": "CareerPlanningWithPapers",
  "sourceName": "contracts/CareerPlanningWithPapers.sol",
  "abi": [
    {
      "inputs": [],
      "stateMutability": "nonpayable",
      "type": "constructor"
    },
    {
      "inputs": [
        {
          "internalType": "address",
          "name": "owner",
          "type": "address"
        }
      ],
      "name": "OwnableInvalidOwner",
      "type": "error"
    },
    {
      "inputs": [
        {
          "internalType": "address",
          "name": "account",
          "type": "address"
        }
      ],
      "name": "OwnableUnauthorizedAccount",
      "type": "error"
    },
    {
      "anonymous": false,
      "inputs": [
        {
          "indexed": true,
          "internalType": "address",
          "name": "user",
          "type": "address"
        },
        {
          "indexed": true,
          "internalType": "uint256",
          "name": "assessmentId",
          "type": "uint256"
        },
        {
          "indexed": true,
          "internalType": "uint256",
          "name": "paperId",
          "type": "uint256"
        },
        {
          "indexed": false,
          "internalType": "uint256",
          "name": "timestamp",
          "type": "uint256"
        }
      ],
      "name": "AssessmentSubmitted",
      "type": "event"
    },
    {
      "anonymous": false,
      "inputs": [
        {
          "indexed": true,
          "internalType": "address",
          "name": "previousOwner",
          "type": "address"
        },
        {
          "indexed": true,
          "internalType": "address",
          "name": "newOwner",
          "type": "address"
        }
      ],
      "name": "OwnershipTransferred",
      "type": "event"
    },
    {
      "anonymous": false,
      "inputs": [
        {
          "indexed": true,
          "internalType": "uint256",
          "name": "paperId",
          "type": "uint256"
        },
        {
          "indexed": false,
          "internalType": "string",
          "name": "title",
          "type": "string"
        }
      ],
      "name": "PaperAdded",
      "type": "event"
    },
    {
      "inputs": [
        {
          "internalType": "string",
          "name": "_title",
          "type": "string"
        },
        {
          "internalType": "string",
          "name": "_description",
          "type": "string"
        },
        {
          "internalType": "string",
          "name": "_authors",
          "type": "string"
        }
      ],
      "name": "addPaper",
      "outputs": [],
      "stateMutability": "nonpayable",
      "type": "function"
    },
    {
      "inputs": [],
      "name": "assessmentCounter",
      "outputs": [
        {
          "internalType": "uint256",
          "name": "",
          "type": "uint256"
        }
      ],
      "stateMutability": "view",
      "type": "function"
    },
    {
      "inputs": [
        {
          "internalType": "uint256",
          "name": "",
          "type": "uint256"
        }
      ],
      "name": "assessments",
      "outputs": [
        {
          "internalType": "address",
          "name": "user",
          "type": "address"
        },
        {
          "internalType": "uint256",
          "name": "selectedPaperId",
          "type": "uint256"
        },
        {
          "internalType": "uint256",
          "name": "encryptedCareerGoal",
          "type": "uint256"
        },
        {
          "internalType": "uint256",
          "name": "encryptedSkillLevel",
          "type": "uint256"
        },
        {
          "internalType": "uint256",
          "name": "encryptedEducationPriority",
          "type": "uint256"
        },
        {
          "internalType": "uint256",
          "name": "timestamp",
          "type": "uint256"
        },
        {
          "internalType": "uint8",
          "name": "guidanceScore",
          "type": "uint8"
        }
      ],
      "stateMutability": "view",
      "type": "function"
    },
    {
      "inputs": [],
      "name": "getActivePapers",
      "outputs": [
        {
          "internalType": "uint256[]",
          "name": "",
          "type": "uint256[]"
        }
      ],
      "stateMutability": "view",
      "type": "function"
    },
    {
      "inputs": [
        {
          "internalType": "uint256",
          "name": "_assessmentId",
          "type": "uint256"
        }
      ],
      "name": "getAssessment",
      "outputs": [
        {
          "internalType": "address",
          "name": "user",
          "type": "address"
        },
        {
          "internalType": "uint256",
          "name": "selectedPaperId",
          "type": "uint256"
        },
        {
          "internalType": "uint256",
          "name": "timestamp",
          "type": "uint256"
        },
        {
          "internalType": "uint8",
          "name": "guidanceScore",
          "type": "uint8"
        }
      ],
      "stateMutability": "view",
      "type": "function"
    },
    {
      "inputs": [],
      "name": "getAssessmentCount",
      "outputs": [
        {
          "internalType": "uint256",
          "name": "",
          "type": "uint256"
        }
      ],
      "stateMutability": "view",
      "type": "function"
    },
    {
      "inputs": [],
      "name": "getContractBalance",
      "outputs": [
        {
          "internalType": "uint256",
          "name": "",
          "type": "uint256"
        }
      ],
      "stateMutability": "view",
      "type": "function"
    },
    {
      "inputs": [
        {
          "internalType": "uint256",
          "name": "_paperId",
          "type": "uint256"
        }
      ],
      "name": "getPaper",
      "outputs": [
        {
          "internalType": "uint256",
          "name": "id",
          "type": "uint256"
        },
        {
          "internalType": "string",
          "name": "title",
          "type": "string"
        },
        {
          "internalType": "string",
          "name": "description",
          "type": "string"
        },
        {
          "internalType": "string",
          "name": "authors",
          "type": "string"
        },
        {
          "internalType": "bool",
          "name": "isActive",
          "type": "bool"
        }
      ],
      "stateMutability": "view",
      "type": "function"
    },
    {
      "inputs": [],
      "name": "getPaperCount",
      "outputs": [
        {
          "internalType": "uint256",
          "name": "",
          "type": "uint256"
        }
      ],
      "stateMutability": "view",
      "type": "function"
    },
    {
      "inputs": [
        {
          "internalType": "address",
          "name": "_user",
          "type": "address"
        }
      ],
      "name": "getUserAssessmentCount",
      "outputs": [
        {
          "internalType": "uint256",
          "name": "",
          "type": "uint256"
        }
      ],
      "stateMutability": "view",
      "type": "function"
    },
    {
      "inputs": [],
      "name": "owner",
      "outputs": [
        {
          "internalType": "address",
          "name": "",
          "type": "address"
        }
      ],
      "stateMutability": "view",
      "type": "function"
    },
    {
      "inputs": [],
      "name": "paperCounter",
      "outputs": [
        {
          "internalType": "uint256",
          "name": "",
          "type": "uint256"
        }
      ],
      "stateMutability": "view",
      "type": "function"
    },
    {
      "inputs": [
        {
          "internalType": "uint256",
          "name": "",
          "type": "uint256"
        }
      ],
      "name": "papers",
      "outputs": [
        {
          "internalType": "uint256",
          "name": "id",
          "type": "uint256"
        },
        {
          "internalType": "string",
          "name": "title",
          "type": "string"
        },
        {
          "internalType": "string",
          "name": "description",
          "type": "string"
        },
        {
          "internalType": "string",
          "name": "authors",
          "type": "string"
        },
        {
          "internalType": "bool",
          "name": "isActive",
          "type": "bool"
        },
        {
          "internalType": "uint256",
          "name": "createdAt",
          "type": "uint256"
        }
      ],
      "stateMutability": "view",
      "type": "function"
    },
    {
      "inputs": [],
      "name": "renounceOwnership",
      "outputs": [],
      "stateMutability": "nonpayable",
      "type": "function"
    },
    {
      "inputs": [
        {
          "internalType": "uint256",
          "name": "_paperId",
          "type": "uint256"
        },
        {
          "internalType": "uint256",
          "name": "_encryptedCareerGoal",
          "type": "uint256"
        },
        {
          "internalType": "uint256",
          "name": "_encryptedSkillLevel",
          "type": "uint256"
        },
        {
          "internalType": "uint256",
          "name": "_encryptedEducationPriority",
          "type": "uint256"
        }
      ],
      "name": "submitCareerAssessment",
      "outputs": [],
      "stateMutability": "payable",
      "type": "function"
    },
    {
      "inputs": [
        {
          "internalType": "address",
          "name": "newOwner",
          "type": "address"
        }
      ],
      "name": "transferOwnership",
      "outputs": [],
      "stateMutability": "nonpayable",
      "type": "function"
    },
    {
      "inputs": [
        {
          "internalType": "address",
          "name": "",
          "type": "address"
        },
        {
          "internalType": "uint256",
          "name": "",
          "type": "uint256"
        }
      ],
      "name": "userAssessments",
      "outputs": [
        {
          "internalType": "uint256",
          "name": "",
          "type": "uint256"
        }
      ],
      "stateMutability": "view",
      "type": "function"
    },
    {
      "inputs": [],
      "name": "withdraw",
      "outputs": [],
      "stateMutability": "nonpayable",
      "type": "function"
    },
    {
      "stateMutability": "payable",
      "type": "receive"
    }
  ],
  "bytecode": "0x608060405234801561001057600080fd5b50338061003757604051631e4fbdf760e01b81526000600482015260240160405180910390fd5b61004081610046565b50610096565b600080546001600160a01b038381166001600160a01b0319831681178455604051919092169283917f8be0079c531659141344cd1fd0a4f28419497f9722a3daafe3b4186f6b6457e09190a35050565b6113a1806100a56000396000f3fe60806040526004361061010d5760003560e01c8063773531dd11610095578063a37331b411610064578063a37331b414610357578063b8e517871461036d578063cf91633c146103ba578063dc4e181a146103dc578063f2fde38b146103ef57600080fd5b8063773531dd146102c457806388f85925146102fa5780638da5cb5b1461031a57806398dda7321461034257600080fd5b80633d7e97f2116100dc5780633d7e97f2146101ae5780634eb6a3b2146101c35780635e775a271461026a5780636f9fb98a1461029c578063715018a6146102af57600080fd5b806307993f04146101195780631749f05f14610153578063375a1e54146101775780633ccfd60b1461019757600080fd5b3661011457005b600080fd5b34801561012557600080fd5b50610139610134366004610e98565b61040f565b60405161014a959493929190610ef7565b60405180910390f35b34801561015f57600080fd5b5061016960045481565b60405190815260200161014a565b34801561018357600080fd5b50610169610192366004610f67565b61063c565b3480156101a357600080fd5b506101ac61066d565b005b3480156101ba57600080fd5b50600454610169565b3480156101cf57600080fd5b506102286101de366004610e98565b600260208190526000918252604090912080546001820154928201546003830154600484015460058501546006909501546001600160a01b03909416959492939192909160ff1687565b604080516001600160a01b0390981688526020880196909652948601939093526060850191909152608084015260a083015260ff1660c082015260e00161014a565b34801561027657600080fd5b5061028a610285366004610e98565b6106b2565b60405161014a96959493929190610f91565b3480156102a857600080fd5b5047610169565b3480156102bb57600080fd5b506101ac610882565b3480156102d057600080fd5b506101696102df366004610fe6565b6001600160a01b031660009081526003602052604090205490565b34801561030657600080fd5b506101ac6103153660046110ab565b610896565b34801561032657600080fd5b506000546040516001600160a01b03909116815260200161014a565b34801561034e57600080fd5b50600554610169565b34801561036357600080fd5b5061016960055481565b34801561037957600080fd5b5061038d610388366004610e98565b61099a565b604080516001600160a01b03909516855260208501939093529183015260ff16606082015260800161014a565b3480156103c657600080fd5b506103cf610a6e565b60405161014a9190611133565b6101ac6103ea366004611177565b610bb9565b3480156103fb57600080fd5b506101ac61040a366004610fe6565b610de0565b60006060806060600080600160008881526020019081526020016000206040518060c001604052908160008201548152602001600182018054610451906111a9565b80601f016020809104026020016040519081016040528092919081815260200182805461047d906111a9565b80156104ca5780601f1061049f576101008083540402835291602001916104ca565b820191906000526020600020905b8154815290600101906020018083116104ad57829003601f168201915b505050505081526020016002820180546104e3906111a9565b80601f016020809104026020016040519081016040528092919081815260200182805461050f906111a9565b801561055c5780601f106105315761010080835404028352916020019161055c565b820191906000526020600020905b81548152906001019060200180831161053f57829003601f168201915b50505050508152602001600382018054610575906111a9565b80601f01602080910402602001604051908101604052809291908181526020018280546105a1906111a9565b80156105ee5780601f106105c3576101008083540402835291602001916105ee565b820191906000526020600020905b8154815290600101906020018083116105d157829003601f168201915b5050509183525050600482015460ff161515602080830191909152600590920154604091820152825191830151908301516060840151608090940151929b919a509850919650945092505050565b6003602052816000526040600020818154811061065857600080fd5b90600052602060002001600091509150505481565b610675610e1b565b600080546040516001600160a01b03909116914780156108fc02929091818181858888f193505050501580156106af573d6000803e3d6000fd5b50565b6001602081905260009182526040909120805491810180546106d3906111a9565b80601f01602080910402602001604051908101604052809291908181526020018280546106ff906111a9565b801561074c5780601f106107215761010080835404028352916020019161074c565b820191906000526020600020905b81548152906001019060200180831161072f57829003601f168201915b505050505090806002018054610761906111a9565b80601f016020809104026020016040519081016040528092919081815260200182805461078d906111a9565b80156107da5780601f106107af576101008083540402835291602001916107da565b820191906000526020600020905b8154815290600101906020018083116107bd57829003601f168201915b5050505050908060030180546107ef906111a9565b80601f016020809104026020016040519081016040528092919081815260200182805461081b906111a9565b80156108685780601f1061083d57610100808354040283529160200191610868565b820191906000526020600020905b81548152906001019060200180831161084b57829003601f168201915b505050506004830154600590930154919260ff1691905086565b61088a610e1b565b6108946000610e48565b565b61089e610e1b565b600480549060006108ae836111f9565b90915550506040805160c0810182526004548082526020808301878152838501879052606084018690526001608085018190524260a0860152600093845291829052939091208251815592519192919082019061090b9082611263565b50604082015160028201906109209082611263565b50606082015160038201906109359082611263565b5060808201516004828101805460ff19169215159290921790915560a090920151600590910155546040517fe581b5644a6f3f5f9223ece29f9f9747e06f83f288bac138b2a76915316c5ec79061098d908690611323565b60405180910390a2505050565b6000818152600260208181526040808420815160e08101835281546001600160a01b031680825260018301549482019490945293810154918401919091526003810154606084015260048101546080840152600581015460a08401526006015460ff1660c0830152829182918291903314610a4d5760405162461bcd60e51b815260206004820152600e60248201526d139bdd08185d5d1a1bdc9a5e995960921b60448201526064015b60405180910390fd5b8051602082015160a083015160c09093015191989097509195509350915050565b6060600060045467ffffffffffffffff811115610a8d57610a8d611008565b604051908082528060200260200182016040528015610ab6578160200160208202803683370190505b509050600060015b6004548111610b1f5760008181526001602052604090206004015460ff1615610b0d5780838381518110610af457610af4611336565b602090810291909101015281610b09816111f9565b9250505b80610b17816111f9565b915050610abe565b5060008167ffffffffffffffff811115610b3b57610b3b611008565b604051908082528060200260200182016040528015610b64578160200160208202803683370190505b50905060005b82811015610bb157838181518110610b8457610b84611336565b6020026020010151828281518110610b9e57610b9e611336565b6020908102919091010152600101610b6a565b509392505050565b66038d7ea4c68000341015610c075760405162461bcd60e51b8152602060048201526014602482015273135a5b9a5b5d5b48199959481c995c5d5a5c995960621b6044820152606401610a44565b60008481526001602052604090206004015460ff16610c685760405162461bcd60e51b815260206004820152601b60248201527f5061706572206e6f7420666f756e64206f7220696e61637469766500000000006044820152606401610a44565b60058054906000610c78836111f9565b91905055506000808211610c8d576000610c90565b600f5b60008411610c9f576000610ca2565b60145b60008611610cb1576000610cb4565b600f5b610cbf90603261134c565b610cc9919061134c565b610cd3919061134c565b6040805160e0810182523380825260208083018a81528385018a8152606085018a8152608086018a81524260a0880181815260ff8b811660c08b019081526005805460009081526002808c528e82209d518e546001600160a01b0319166001600160a01b03909116178e5599516001808f01919091559851998d019990995595516003808d0191909155945160048c015591518a86015590516006909901805460ff1916999091169890981790975585845284528683208154815493840182559084529284902090910191909155549351928352939450889390917f075ecaa74979aa3b776b672a186501afc7dbb927821ce1c27844e83fb286eb42910160405180910390a45050505050565b610de8610e1b565b6001600160a01b038116610e1257604051631e4fbdf760e01b815260006004820152602401610a44565b6106af81610e48565b6000546001600160a01b031633146108945760405163118cdaa760e01b8152336004820152602401610a44565b600080546001600160a01b038381166001600160a01b0319831681178455604051919092169283917f8be0079c531659141344cd1fd0a4f28419497f9722a3daafe3b4186f6b6457e09190a35050565b600060208284031215610eaa57600080fd5b5035919050565b6000815180845260005b81811015610ed757602081850181015186830182015201610ebb565b506000602082860101526020601f19601f83011685010191505092915050565b85815260a060208201526000610f1060a0830187610eb1565b8281036040840152610f228187610eb1565b90508281036060840152610f368186610eb1565b91505082151560808301529695505050505050565b80356001600160a01b0381168114610f6257600080fd5b919050565b60008060408385031215610f7a57600080fd5b610f8383610f4b565b946020939093013593505050565b86815260c060208201526000610faa60c0830188610eb1565b8281036040840152610fbc8188610eb1565b90508281036060840152610fd08187610eb1565b9415156080840152505060a00152949350505050565b600060208284031215610ff857600080fd5b61100182610f4b565b9392505050565b634e487b7160e01b600052604160045260246000fd5b600082601f83011261102f57600080fd5b813567ffffffffffffffff8082111561104a5761104a611008565b604051601f8301601f19908116603f0116810190828211818310171561107257611072611008565b8160405283815286602085880101111561108b57600080fd5b836020870160208301376000602085830101528094505050505092915050565b6000806000606084860312156110c057600080fd5b833567ffffffffffffffff808211156110d857600080fd5b6110e48783880161101e565b945060208601359150808211156110fa57600080fd5b6111068783880161101e565b9350604086013591508082111561111c57600080fd5b506111298682870161101e565b9150509250925092565b6020808252825182820181905260009190848201906040850190845b8181101561116b5783518352928401929184019160010161114f565b50909695505050505050565b6000806000806080858703121561118d57600080fd5b5050823594602084013594506040840135936060013592509050565b600181811c908216806111bd57607f821691505b6020821081036111dd57634e487b7160e01b600052602260045260246000fd5b50919050565b634e487b7160e01b600052601160045260246000fd5b60006001820161120b5761120b6111e3565b5060010190565b601f82111561125e576000816000526020600020601f850160051c8101602086101561123b5750805b601f850160051c820191505b8181101561125a57828155600101611247565b5050505b505050565b815167ffffffffffffffff81111561127d5761127d611008565b6112918161128b84546111a9565b84611212565b602080601f8311600181146112c657600084156112ae5750858301515b600019600386901b1c1916600185901b17855561125a565b600085815260208120601f198616915b828110156112f5578886015182559484019460019091019084016112d6565b50858210156113135787850151600019600388901b60f8161c191681555b5050505050600190811b01905550565b6020815260006110016020830184610eb1565b634e487b7160e01b600052603260045260246000fd5b60ff8181168382160190811115611365576113656111e3565b9291505056fea26469706673582212200c8df2c6974b83bf2740d0b810198f4e40ae96e3a7ef1397b6eacf848e59ce5064736f6c63430008180033",
  "linkReferences": {},
  "deployedLinkReferences": {}
}