{
  "_format": "hh-sol-artifact-1",
  "contractName": "CareerPlanningContract",
  "sourceName": "contracts/CareerPlanningContract.sol",
  "abi": [
    {
      "anonymous": false,
      "inputs": [
        {
          "indexed": true,
          "internalType": "address",
          "name": "user",
          "type": "address"
        },
        {
          "indexed": true,
          "internalType": "uint256",
          "name": "assessmentId",
          "type": "uint256"
        },
        {
          "indexed": false,
          "internalType": "uint256",
          "name": "timestamp",
          "type": "uint256"
        }
      ],
      "name": "AssessmentSubmitted",
      "type": "event"
    },
    {
      "anonymous": false,
      "inputs": [
        {
          "indexed": true,
          "internalType": "address",
          "name": "user",
          "type": "address"
        },
        {
          "indexed": true,
          "internalType": "uint256",
          "name": "assessmentId",
          "type": "uint256"
        }
      ],
      "name": "ResultRequested",
      "type": "event"
    },
    {
      "inputs": [],
      "name": "assessmentCounter",
      "outputs": [
        {
          "internalType": "uint256",
          "name": "",
          "type": "uint256"
        }
      ],
      "stateMutability": "view",
      "type": "function"
    },
    {
      "inputs": [
        {
          "internalType": "uint256",
          "name": "",
          "type": "uint256"
        }
      ],
      "name": "assessments",
      "outputs": [
        {
          "internalType": "address",
          "name": "user",
          "type": "address"
        },
        {
          "internalType": "bytes32",
          "name": "careerGoalHash",
          "type": "bytes32"
        },
        {
          "internalType": "bytes32",
          "name": "skillLevelHash",
          "type": "bytes32"
        },
        {
          "internalType": "bytes32",
          "name": "educationPriorityHash",
          "type": "bytes32"
        },
        {
          "internalType": "uint256",
          "name": "timestamp",
          "type": "uint256"
        },
        {
          "internalType": "bool",
          "name": "resultRequested",
          "type": "bool"
        },
        {
          "internalType": "uint8",
          "name": "guidanceScore",
          "type": "uint8"
        }
      ],
      "stateMutability": "view",
      "type": "function"
    },
    {
      "inputs": [],
      "name": "getAssessmentCount",
      "outputs": [
        {
          "internalType": "uint256",
          "name": "",
          "type": "uint256"
        }
      ],
      "stateMutability": "view",
      "type": "function"
    },
    {
      "inputs": [
        {
          "internalType": "uint256",
          "name": "_assessmentId",
          "type": "uint256"
        }
      ],
      "name": "getAssessmentInfo",
      "outputs": [
        {
          "internalType": "address",
          "name": "",
          "type": "address"
        },
        {
          "internalType": "uint256",
          "name": "",
          "type": "uint256"
        },
        {
          "internalType": "bool",
          "name": "",
          "type": "bool"
        }
      ],
      "stateMutability": "view",
      "type": "function"
    },
    {
      "inputs": [
        {
          "internalType": "uint256",
          "name": "_assessmentId",
          "type": "uint256"
        }
      ],
      "name": "getAssessmentTimestamp",
      "outputs": [
        {
          "internalType": "uint256",
          "name": "",
          "type": "uint256"
        }
      ],
      "stateMutability": "view",
      "type": "function"
    },
    {
      "inputs": [
        {
          "internalType": "uint256",
          "name": "_assessmentId",
          "type": "uint256"
        }
      ],
      "name": "getCareerGuidance",
      "outputs": [
        {
          "internalType": "uint8",
          "name": "",
          "type": "uint8"
        }
      ],
      "stateMutability": "view",
      "type": "function"
    },
    {
      "inputs": [],
      "name": "getContractBalance",
      "outputs": [
        {
          "internalType": "uint256",
          "name": "",
          "type": "uint256"
        }
      ],
      "stateMutability": "view",
      "type": "function"
    },
    {
      "inputs": [
        {
          "internalType": "address",
          "name": "_user",
          "type": "address"
        }
      ],
      "name": "getUserAssessmentCount",
      "outputs": [
        {
          "internalType": "uint256",
          "name": "",
          "type": "uint256"
        }
      ],
      "stateMutability": "view",
      "type": "function"
    },
    {
      "inputs": [
        {
          "internalType": "address",
          "name": "_user",
          "type": "address"
        }
      ],
      "name": "getUserAssessments",
      "outputs": [
        {
          "internalType": "uint256[]",
          "name": "",
          "type": "uint256[]"
        }
      ],
      "stateMutability": "view",
      "type": "function"
    },
    {
      "inputs": [
        {
          "internalType": "uint256",
          "name": "_assessmentId",
          "type": "uint256"
        }
      ],
      "name": "isResultRequested",
      "outputs": [
        {
          "internalType": "bool",
          "name": "",
          "type": "bool"
        }
      ],
      "stateMutability": "view",
      "type": "function"
    },
    {
      "inputs": [
        {
          "internalType": "uint256",
          "name": "_assessmentId",
          "type": "uint256"
        }
      ],
      "name": "requestAssessmentResult",
      "outputs": [],
      "stateMutability": "nonpayable",
      "type": "function"
    },
    {
      "inputs": [
        {
          "internalType": "bool",
          "name": "_careerGoal",
          "type": "bool"
        },
        {
          "internalType": "bool",
          "name": "_skillLevel",
          "type": "bool"
        },
        {
          "internalType": "bool",
          "name": "_educationPriority",
          "type": "bool"
        },
        {
          "internalType": "uint256",
          "name": "_nonce",
          "type": "uint256"
        }
      ],
      "name": "submitCareerAssessment",
      "outputs": [],
      "stateMutability": "payable",
      "type": "function"
    },
    {
      "inputs": [
        {
          "internalType": "address",
          "name": "",
          "type": "address"
        },
        {
          "internalType": "uint256",
          "name": "",
          "type": "uint256"
        }
      ],
      "name": "userAssessments",
      "outputs": [
        {
          "internalType": "uint256",
          "name": "",
          "type": "uint256"
        }
      ],
      "stateMutability": "view",
      "type": "function"
    },
    {
      "inputs": [],
      "name": "withdraw",
      "outputs": [],
      "stateMutability": "nonpayable",
      "type": "function"
    },
    {
      "stateMutability": "payable",
      "type": "receive"
    }
  ],
  "bytecode": "0x608060405234801561001057600080fd5b50610ace806100206000396000f3fe6080604052600436106100e15760003560e01c806389cadc7c1161007f578063acebde0211610059578063acebde021461030a578063b4aa88101461032a578063fd4c841e1461034a578063fdc1a69c1461038d57600080fd5b806389cadc7c146102cc57806398dda732146102df578063a37331b4146102f457600080fd5b80634eb6a3b2116100bb5780634eb6a3b2146101685780636f9fb98a14610212578063773531dd14610225578063868a84af1461025b57600080fd5b8063288a4ca8146100ed578063375a1e54146101235780633ccfd60b1461015157600080fd5b366100e857005b600080fd5b3480156100f957600080fd5b5061010d610108366004610946565b6103bf565b60405161011a9190610968565b60405180910390f35b34801561012f57600080fd5b5061014361013e3660046109ac565b61042b565b60405190815260200161011a565b34801561015d57600080fd5b5061016661045c565b005b34801561017457600080fd5b506101ce6101833660046109d6565b6000602081905290815260409020805460018201546002830154600384015460048501546005909501546001600160a01b039094169492939192909160ff8082169161010090041687565b604080516001600160a01b03909816885260208801969096529486019390935260608501919091526080840152151560a083015260ff1660c082015260e00161011a565b34801561021e57600080fd5b5047610143565b34801561023157600080fd5b50610143610240366004610946565b6001600160a01b031660009081526001602052604090205490565b34801561026757600080fd5b506102a56102763660046109d6565b6000908152602081905260409020805460048201546005909201546001600160a01b039091169260ff90911690565b604080516001600160a01b039094168452602084019290925215159082015260600161011a565b6101666102da3660046109ff565b6104ca565b3480156102eb57600080fd5b50600254610143565b34801561030057600080fd5b5061014360025481565b34801561031657600080fd5b506101666103253660046109d6565b610724565b34801561033657600080fd5b506101436103453660046109d6565b610816565b34801561035657600080fd5b5061037d6103653660046109d6565b60009081526020819052604090206005015460ff1690565b604051901515815260200161011a565b34801561039957600080fd5b506103ad6103a83660046109d6565b610878565b60405160ff909116815260200161011a565b6001600160a01b03811660009081526001602090815260409182902080548351818402810184019094528084526060939283018282801561041f57602002820191906000526020600020905b81548152602001906001019080831161040b575b50505050509050919050565b6001602052816000526040600020818154811061044757600080fd5b90600052602060002001600091509150505481565b33321461049b5760405162461bcd60e51b81526020600482015260086024820152674f6e6c7920454f4160c01b60448201526064015b60405180910390fd5b60405133904780156108fc02916000818181858888f193505050501580156104c7573d6000803e3d6000fd5b50565b66038d7ea4c680003410156105185760405162461bcd60e51b8152602060048201526014602482015273135a5b9a5b5d5b48199959481c995c5d5a5c995960621b6044820152606401610492565b6002805490600061052883610a60565b9091555050604080513360601b6bffffffffffffffffffffffff1916602080830182905287151560f890811b6034850152603584018690526319dbd85b60e21b60558501528451603981860301815260598501865280519083012060798501849052881515821b608d860152608e8501879052641cdada5b1b60da1b60ae8601528551609381870301815260b38601875280519084012060d386019490945287151590911b60e785015260e884018690526832b23ab1b0ba34b7b760b91b610108850152845160f1818603018152610111909401909452825192019190912060006106148888886108e2565b6040805160e081018252338082526020808301898152838501898152606085018981524260808701818152600060a0890181815260ff8c811660c08c01908152600280548552848b528d85209c518d546001600160a01b0319166001600160a01b03909116178d5598516001808e019190915597518c8a0155955160038c0155925160048b01555160059099018054945161ffff1990951699151561ff00191699909917610100949092169390930217909655848152818452868120835481549384018255908252908490209091015554935192835293945091927f13d6145eb674af10d0330752a2ce13fed9f845c13b43e4c313de364924ff7ec8910160405180910390a35050505050505050565b600081815260208190526040902080546001600160a01b031633146107815760405162461bcd60e51b8152602060048201526013602482015272139bdd081e5bdd5c88185cdcd95cdcdb595b9d606a1b6044820152606401610492565b600581015460ff16156107d65760405162461bcd60e51b815260206004820152601860248201527f526573756c7420616c72656164792072657175657374656400000000000000006044820152606401610492565b60058101805460ff19166001179055604051829033907f557860035f4876868df010cfe894a9a1b9abca118c1d5c991efb9b7f625c6b9e90600090a35050565b600081815260208190526040812080546001600160a01b0316331461086e5760405162461bcd60e51b815260206004820152600e60248201526d139bdd08185d5d1a1bdc9a5e995960921b6044820152606401610492565b6004015492915050565b600081815260208190526040812080546001600160a01b031633146108d05760405162461bcd60e51b815260206004820152600e60248201526d139bdd08185d5d1a1bdc9a5e995960921b6044820152606401610492565b60050154610100900460ff1692915050565b6000603284156108fa576108f7600f82610a79565b90505b831561090e5761090b601482610a79565b90505b82156109225761091f600f82610a79565b90505b949350505050565b80356001600160a01b038116811461094157600080fd5b919050565b60006020828403121561095857600080fd5b6109618261092a565b9392505050565b6020808252825182820181905260009190848201906040850190845b818110156109a057835183529284019291840191600101610984565b50909695505050505050565b600080604083850312156109bf57600080fd5b6109c88361092a565b946020939093013593505050565b6000602082840312156109e857600080fd5b5035919050565b8035801515811461094157600080fd5b60008060008060808587031215610a1557600080fd5b610a1e856109ef565b9350610a2c602086016109ef565b9250610a3a604086016109ef565b9396929550929360600135925050565b634e487b7160e01b600052601160045260246000fd5b600060018201610a7257610a72610a4a565b5060010190565b60ff8181168382160190811115610a9257610a92610a4a565b9291505056fea26469706673582212203f0a7b106380210e7ee9db6892274699ebbc85e903241946d2b1f5ee82e208b964736f6c63430008180033",
  "linkReferences": {},
  "deployedLinkReferences": {}
}